:020000040800F2
:10000000280700209D010008471C0008511B00081C
:10001000451C0008890D0008A92300080000000005
:10002000000000000000000000000000351D000876
:100030008B0D000800000000691C0008371D000837
:10004000B7010008B7010008B7010008B7010008B0
:10005000B7010008B7010008B7010008B7010008A0
:10006000B7010008B7010008B7010008B701000890
:10007000B7010008B7010008B7010008B701000880
:10008000B7010008B7010008B7010008B701000870
:10009000B7010008B7010008B7010008B701000860
:1000A000B7010008B7010008B7010008B701000850
:1000B000B7010008B7010008B7010008B701000840
:1000C000B7010008B7010008B7010008B701000830
:1000D000B70100089D230008B7010008B701000818
:1000E000B7010008B7010008B7010008B701000810
:1000F000B7010008B7010008B7010008B701000800
:10010000B7010008B7010008B7010008B7010008EF
:10011000B7010008651F0008B7010008B701000813
:10012000B7010008B7010008B7010008B7010008CF
:10013000B7010008B7010008B7010008B7010008BF
:10014000B7010008B7010008B7010008B7010008AF
:10015000B7010008B7010008B7010008B70100089F
:10016000B7010008B7010008B7010008B70100088F
:10017000B7010008B7010008B7010008000000003F
:10018000B7010008B7010008DFF80CD000F048FB09
:10019000004800472D300008280700200648804707
:1001A00006480047FEE7FEE7FEE7FEE7FEE7FEE75C
:1001B000FEE7FEE7FEE7FEE7E51D0008890100080F
:1001C0002DE9F05F0546002092469B46884606468C
:1001D000814640241BE0284641464746224600F01F
:1001E00099F853465A46C01A914110D31146184601
:1001F000224600F080F82D1A67EB01084F46224690
:100200000120002100F077F817EB00094E41201E75
:10021000A4F10104DFDC484631462A464346BDE8E6
:10022000F09FCAB2401E10F8011F8A4202D0002976
:10023000F9D10020704710B5002200E0521C835C09
:100240008C5CA34201D1002BF8D1D8B2E1B2401AA4
:1002500010BD70B5064602F0BDF8046805460A22D6
:100260000021304600F0B4F82C6070BD00F0004270
:1002700030F000400AD0C10D01F56071C0F31600E6
:1002800042EA0151C208400711437047002001466D
:10029000704701F0004330B421F0004150EA010200
:1002A00006D00A0DA2F56072C1F31301002A02DC28
:1002B00030BC00207047440F44EAC104C100E0187C
:1002C00030BC00EBC25000F0BBB830B50B46014665
:1002D00000202022012409E021FA02F59D4205D3E5
:1002E00003FA02F5491B04FA02F52844151EA2F18F
:1002F0000102F1DC30BD202A04DB203A00FA02F1D1
:10030000002070479140C2F1200320FA03F3194303
:1003100090407047202A04DB203A21FA02F00021A5
:10032000704721FA02F3D040C2F120029140084305
:10033000194670470FB4002300B589B00CA900918D
:100340000B996FF00042CB601E4B06931E4B079338
:100350000423CDE901321D4A089202466B46002073
:1003600000F010FB09B05DF814FB70B586B00646CE
:100370004FF0FF300091CDE90101002015460C46F9
:1003800004903246694604A8FFF7D4FF0346049858
:10039000211825B108B10A4600E022462A6000284B
:1003A0000DD0002B02DD0098884208D0081B009475
:1003B000CDE901043246694604A8FFF7BBFF06B049
:1003C00070BD0000BD0B0008DB0B000871080008C1
:1003D0002DE9F04791460F4680460446002614F862
:1003E000015B2DB100F040FA0068405DC007F6D116
:1003F0002B2D02D02D2D18D0641E4A46394620469A
:1004000000F0FCFB27B13968A14201D1C7F8008098
:1004100071054FF002040BD54042002803DD01F0C6
:10042000D9FF0460A007BDE8F08746F48066E4E7E2
:100430000028F8DA01F0CEFF04606FF00040F2E728
:100440000029A8BF7047401C490008BF20F00100E8
:10045000704710B4B0FA80FC00FA0CF050EA0104C6
:1004600004BF10BC704749B1CCF1200421FA04F458
:1004700011FA0CF118BF012121430843A3EB0C0131
:10048000CB1D4FEA00614FEA102042BF002010BC94
:10049000704700EBC35010440029A4BF10BC704744
:1004A000401C490008BF20F0010010BC70472DE936
:1004B000FE4F804681EA0300C00F0C46009021F0F9
:1004C000004123F00045B8EB0200A94105D24046A7
:1004D000214690461C460B46024623F0004010433E
:1004E00047D0270DC7F30A00C3F30A510290401A00
:1004F000019040286BDAC3F3130040F4801B00988E
:10050000924620B10023D2EB030A63EB0B0B019858
:100510005946C0F140025046FFF7EDFE06460D4633
:1005200050465946019A00F08DF910EB08006141E0
:10053000002487EA115284EAE7731A4340D0009AF4
:1005400062B3019A012A4FEA075215DC001B61EBE6
:1005500002014FF0004202EA0752CDE90042001CBE
:1005600041F5801132462B4600F0A6FB03B0BDE8F2
:10057000F08F40462146F9E7001B61EB0201001CA9
:1005800041F5801300185B412018A2F5001747EBD6
:10059000030140EAD570B6196D4111E06D084FEACC
:1005A000360645EAC0754FEA0752001B61EB0201AF
:1005B000001C41F5801149084FEA300000195141F3
:1005C00032462B4603B0BDE8F04F00F066BB009802
:1005D000012240000023D0EB020263EBE07300989D
:1005E00021464FEAE074B8EB000061EB0401E9E753
:1005F00083F000435BE781F0004158E72DE9FE4FAF
:1006000081EA030404F0004421F0004100944FF01B
:10061000000B23F0004350EA01045ED052EA0304C9
:100620005BD0C3F30A54C1F30A552C44A4F2F3344B
:100630000194A0FB0254C1F3130141F48011C3F3F0
:10064000130343F4801301FB024400FB034E840AAE
:10065000970A44EA815447EA8357A4FB0768029546
:100660008D0A05FB07854FEA932C04FB0C542705E4
:10067000029D4FEA065847EA1637B5EB08056EEBC0
:10068000070C870E920E47EA811742EA8312A7FBF6
:100690000201B6EB0B0164EB00042B0D43EA0C33B3
:1006A0005E1844EB1C50DA465146E7FB0201C5F3E5
:1006B00013044FEA0B3343EA14534FEA0432019C0C
:1006C00043EA0603A4F10C040294009CCDE900B4B3
:1006D00000F0F2FA03B0BDE8F08F00200146F9E720
:1006E0002DE9F04D81EA030404F0004B21F00045B0
:1006F00014464FF0000A23F0004150EA050220D0D2
:1007000054EA01021DD0C5F30A570246C5F313038C
:10071000C1F31300C1F30A5640F4801543F480136B
:10072000A7EB0608101BD64608F2FD3873EB050050
:1007300002D308F1010801E092185B41B8F1000F03
:1007400003DA00200146BDE8F08D00204FF480114F
:10075000064684460EE0171B73EB050705D3121BF4
:1007600063EB050306434CEA010C49084FEA3000ED
:1007700092185B4150EA0107EDD152EA030012D012
:1007800082EA040083EA0501084305D0101BAB414F
:1007900006D20122002306E000224FF0004302E0CF
:1007A0006FF0010253101AEB06004CEB085110EBEE
:1007B0000A0041EB0B01BDE8F04D00F06EBAC1F349
:1007C0000A52C1F3130140F2FF3341F480119A42FF
:1007D00002DA00200146704740F233439A42A2F207
:1007E000334202DC5242FFF795BDFFF784BD0000A3
:1007F00030B5041E71F1000404DB4FF000444042A8
:1008000064EB0101141E73F1000405DB1C464FF07C
:100810000043524263EB0403994208BF904230BD4B
:10082000064C074D06E0E06840F0010394E807003D
:1008300098471034AC42F6D3FFF7AAFCBC3300084B
:10084000DC330008202A06DBCB17203A41FA02F0FD
:1008500043EAE07306E041FA02F3D040C2F120021D
:10086000914008431946704700487047B833000864
:1008700010B50446FFF7F8FF0068005D00F00100C6
:1008800010BD00002DE9FF4F087881B09946FF2880
:1008900005D0491C2D2804D00024002308E00023A3
:1008A0000BE00124F9E703EB830300EB4303491C4E
:1008B0000878FF28F7D104B15B420020009014783B
:1008C00001462D2C01D02B2C04D1521C2D2C12D0E2
:1008D0000024009400251678FF2E0ED00A24A0FBD9
:1008E00004C801FB0481002700FB0711521C16EB12
:1008F0000C006941EFE70124EBE7994450EA01025B
:100900000ED00024AA4D2646DFF8A88200F030FA67
:1009100082468B46B9F1000009DAC9F100071BE0F5
:1009200001980021C0E9001105B0BDE8F08F07462D
:1009300012E0F80707D022462B4630464146FFF723
:100940005DFE0646884622462B4610461946FFF7AE
:1009500055FE04460D467F10002FEAD1B9F1000F75
:10096000324643465046594602DAFFF7B9FE01E0E7
:10097000FFF744FE009A0AB181F00041019AC2E9F2
:100980000001D1E72DE9FF4F1F468DB0D7E90146A1
:100990004FF0FF382E2045464FF000090B90B96903
:1009A0006D1C0E988847396A824688470028F6D120
:1009B000BAF1FF3F0AD024F4D064002E11DDBAF161
:1009C0002B0F08D0BAF12D0F0BD102E0404611B029
:1009D000ABE744F48064B9696D1C0E988847824681
:1009E000761E6946600501D52D2000E02B208DF88C
:1009F000000001F1010B0DF1200809E0B9696D1C3F
:100A00000E98884782460F9844F40074761E05605D
:100A1000002E02DDBAF1300FF0D00B998A453ED19D
:100A200044F0800406E00F99681CA9F1010944F420
:100A300000740860B9696D1C761E0E98884782465E
:100A40003028F0D02BE00B998A4505D1200603D43D
:100A500044F08004761E18E0504601F0ABFD08B368
:100A60000DF11301761E44F400748B4508D2AAF1EF
:100A700030000BF8010B200607D5A9F1010003E0B7
:100A8000200602D409F101008146A00502D50F9984
:100A9000681C0860B9696D1C0E9888478246002E54
:100AA000D1DC53E0002E51DDBAF1650F02D0BAF16E
:100AB000450F4BD1A00549D5B9696D1C24F440748C
:100AC000761E0E9888478246002E0CDD2B2804D017
:100AD000BAF12D0F07D144F48074B9696D1C0E98DA
:100AE00088478246761EE00501D52D2100E02B21A6
:100AF00008F8011BCDF82C8021E00DF12901761EAC
:100B000044F4007488450CD2AAF1300010F0FF00C4
:100B100088F8000002D10B99884509D908F101082D
:100B200006E0E00501D5244801E042F20F7081465D
:100B3000B9696D1C0E98884782460F980560002E93
:100B400004DD504601F036FD0028D6D1F9690E9833
:100B50008847FF208BF8000088F8000000200690EE
:100B600007904B466A4608A906A8FFF78BFEA0052A
:100B700002D46FF001002AE714F0240F0AD0E00736
:100B800014D1DDE906123868031D3B600068C0E936
:100B900000120BE0DDE90601FFF77BFB0146E007F1
:100BA00004D13868021D3A600068016028460EE7EB
:100BB000000024400000F03FF1D8FFFF426842B13E
:100BC000016811F8013B23B1521EC0E9001218461A
:100BD00070470121C160881E704742685AB1C368DE
:100BE000016843B983688B4205D0491E521CC0E995
:100BF0000012002070474FF0FF3070472DE9F05F82
:100C000082460078002715468B460AF10104B94652
:100C1000302801D09DB113E014F8010B012778288A
:100C200003D0582801D045B10AE00DB1102D07D1ED
:100C30000027102514F8010B02E0082500E00A2522
:100C40000026B0460EE005FB080005FB06F1012773
:100C500001EB10461FFA80F8B6F5803F00D3B94685
:100C600014F8010B294600F075F80028EBDABBF107
:100C7000000F05D00FB1641E00E05446CBF80040D1
:100C8000B9F1000F06D001F0A5FB02210160C81EDA
:100C9000BDE8F09F48EA0640FAE710B5141E73F16C
:100CA000000408DA401C41F1000192185B411A432C
:100CB00001D120F0010010BD2DE9F04D92469B4678
:100CC00011B1B1FA81F202E0B0FA80F2203290461E
:100CD000FFF711FB04460F4640EA0A0041EA0B0108
:100CE00053465A46084313D0114653EA010019D01F
:100CF000C8F140025046FFF70DFB05460E46504630
:100D000059464246FFF7F7FA084305D0012004E0B0
:100D100020463946BDE8F08D0020054346EAE076DE
:100D20002C4337430A986305E40AA0EB080000222D
:100D3000FD0A44EA47540A3002D500200146E9E79B
:100D4000010510196941DDE9084500196941BDE84F
:100D5000F04DA2E73A2800D2303820F02002412A94
:100D600001D3A2F13700884201D34FF0FF30704722
:100D70000EB540F2334202920022CDE90022134622
:100D8000FFF79AFF03B000BDFEE7704790F83510FB
:100D9000022903D08021416501207047052180F898
:100DA00035100068016821F00101016000207047E2
:100DB0002DE9F84FDFF87CB100224FF001084FF029
:100DC000030A4FF00F090BF1040E00BF0B6808FA7D
:100DD00002F42340A3426ED14D68022D01D0122DA2
:100DE0000ED1D50800EB850CDCF820505607F70E25
:100DF00009FA07F6B5430E69BE402E43CCF82060D1
:100E0000066855000F790AFA05FC07F0030726EA81
:100E10000C06AF40374307604E68012E05D0022E06
:100E200003D0112E01D0122E0ED18668CF6826EA8B
:100E30000C06AF40374387604668A6430C79C4F37D
:100E40000014944034434460C6688C6826EA0C065B
:100E5000AC403443C4604C68E40065D5364C25682A
:100E600045F480452560246822F0030504F480449D
:100E70000094324C2E19D6F8084895072F0F09FA1E
:100E800007F5AC432E4DA84201D1002524E02D4D9D
:100E9000A84201D101251FE02B4DA84201D1022516
:100EA0001AE02A4DA84201D1032515E0284DA84299
:100EB00002D1042510E037E0264DA84201D10525D6
:100EC0000AE0254DA84201D1062505E0234DA842A0
:100ED00001D1072500E00825BD402543C6F8085884
:100EE000DBF800405D464E689C43F60300D51C438A
:100EF0002C60DEF8004075464E689C43B60300D572
:100F00001C432C600B4D08352C684E689C43F60240
:100F100000D51C432C60074D0C352C684E689C4353
:100F2000B60200D51C432C60521C102AFFF44EAFB1
:100F3000BDE8F88F003C01404438024000300140D9
:100F4000000002400004024000080240000C024081
:100F5000001002400014024000180240001C024031
:100F60000AB1816170470904FBE70000014880680D
:100F70007047000048000020024881680278114450
:100F800081607047480000200B4810B5016841F4AB
:100F900000710160016841F480610160016841F401
:100FA00080710160032000F097F8002000F006F83F
:100FB00000F024F8002010BD003C024070B50D4D3B
:100FC00004464FF47A712878B1FBF0F00A490968B9
:100FD000B1FBF0F000F01DFB48B9102C07D2002245
:100FE0002146501E00F058F800206C6070BD0120B2
:100FF00070BD000048000020540000201F4808B5C4
:10100000016841F480410160006800F48040009074
:101010001A48001F016841F080510160006800F02B
:1010200080500090032000F057F8002211466FF026
:101030000B0000F031F8002211466FF00A0000F0BA
:101040002BF8002211466FF0090000F025F800226D
:101050001146501F00F020F800221146101F00F02A
:101060001BF800221146901E00F016F80022BDE881
:1010700008401146501E00F00FB8000044380240EE
:1010800000F01F02012191404009800000F1E020A2
:10109000C0F8001170470000F0B40E4B1B680C46FE
:1010A000C3F30223C3F10705042D00D90425191D3C
:1010B000072901D2002300E0DB1E012606FA05F114
:1010C000491E214099409E40761E16403143F0BC97
:1010D00000F0BABD0CED00E0064900F00702086818
:1010E0004FF6FF03184040EA0220034A104308600D
:1010F000704700000CED00E00000FA052DE9F04714
:101100000E46050065D0DFF81481D8F80000F7B26C
:1011100000F00F00B04207D288F80070D8F8000045
:1011200000F00F00B04254D128683D4C810712D521
:10113000400703D5206840F4E0502060287800077D
:1011400003D5206840F4604020602068A96820F042
:10115000F000084320602878C0072DD03049686827
:101160000839012812D0022813D0032811D00968A9
:10117000890700292DDA216821F00301014321604C
:10118000FFF7F4FE814641F2883A0EE009688903D0
:10119000EFE709688901ECE7FFF7E8FEA0EB09013A
:1011A000514502D90320BDE8F0872068696800F046
:1011B0000C00B0EB810FEFD1D8F80010404601F0E1
:1011C0000F01B14207D90770006800F00F00B0426C
:1011D00001D00120E7E72878400705D52068E968B5
:1011E00020F4E050084320602878000706D52068E6
:1011F000296920F4604040EAC100206000F03CF81A
:101200002168084AC1F30311515CC84006490860CF
:101210000020FFF7D3FE0020C5E70000003C02409D
:10122000083802401C3300085400002001480068C0
:101230007047000054000020044805490068096810
:10124000044AC1F38221515CC84070475400002019
:10125000083802402C330008044805490068096832
:10126000044AC1F34231515CC84070475400002029
:10127000083802402C330008154810B5006810F0FB
:101280000C02144813D01449042A0FD0082A0ED196
:101290000F4C241F2268236802F03F025B0207D52F
:1012A0002068C0F38810A0FB010106E0084610BDCD
:1012B0002168C1F38811A1FB00010023FEF780FF24
:1012C0002168C1F30141491C4900B0FBF1F010BD98
:1012D000083802400024F40040787D012DE9F84FE1
:1012E000050076D02878DFF8F8B2BE4CC00749D0A8
:1012F000DBF800105846C1F38101012908D00068CD
:10130000C0F3810002280AD1201D0068400206D5E2
:101310002068800336D568680028E2D032E068682B
:10132000B0F5803F10D0B0F5A02F206810D020F489
:1013300080302060206820F4802020606868A0B1A0
:10134000FFF714FE06460CE0206840F48030F4E716
:1013500040F480202060F7E7FFF708FE801B642838
:1013600073D820688003F7D50CE0FFF7FFFD064631
:1013700005E000BFFFF7FAFD801B6428F0D8206865
:101380008003F7D42878DFF8608280074FF00009E7
:101390003ED5DBF80010584611F00C0F09D000685C
:1013A000C0F3810002280BD18D48001F0068400265
:1013B00006D42068800715D5E868012809D111E016
:1013C000E868B8B10120C8F80000FFF7CFFD064675
:1013D00005E002E1FFF7CAFD801B0228C0D82068A3
:1013E0008007F7D52068296920F0F80040EAC1009D
:1013F00020600DE0C8F80090FFF7B8FD064604E055
:10140000FFF7B4FD801B02281FD820688007F7D49F
:101410002878000722D5724E744869696C3671B11C
:1014200001210160FFF7A2FD074604E0FFF79EFDE2
:10143000C01B022809D830688007F7D50EE0C0F835
:101440000090FFF793FD074605E083E0FFF78EFD70
:10145000C01B02287ED830688007F7D42878400760
:1014600068D5DFF87CA100270AF1380ADAF8000015
:10147000C0000BD4DAF8001041F08051CAF8001017
:10148000DAF80000012700F080500090584E3068D4
:10149000C00510D4306840F480703060FFF766FDFE
:1014A000009005E0FFF762FD0099401A022851D82C
:1014B0003068C005F6D54A4EA868683601280FD0B6
:1014C0000528306810D020F001003060306820F02E
:1014D00004003060A868B8B1FFF748FD00900FE045
:1014E000306840F00100F4E740F004003060F7E7B6
:1014F000FFF73CFD0099411A41F28830814264D8DF
:1015000030688007F4D50EE0FFF730FD009007E06B
:10151000FFF72CFD0099411A41F28830814254D8DE
:1015200030688007F4D42FB1DAF8001021F0805130
:10153000CAF80010A869C0B3DBF80010C1F381013C
:1015400002294AD00228484607D0C8F86000FFF7B1
:101550000DFD00E039E005463AE04746C8F8600076
:10156000FFF704FD064604E0FFF700FD801B02289C
:101570002BD820688001F7D4D5E907010843A96A70
:101580001C4A490802EB01416A6A41EA8211084398
:1015900095F82C1040EA01611148001F01600120FC
:1015A0003866FFF7E3FC054605E014E0FFF7DEFCD4
:1015B000401B022809D820688001F7D50BE000BF46
:1015C000FFF7D4FC401B022802D90320BDE8F88FA6
:1015D00020688001F4D40020F8E70120F6E700003D
:1015E000083802400038024000004742800E47425F
:1015F000007000400000FFFF4FF0E0210428086960
:1016000003D020F004000861704740F00400FAE7BE
:10161000704710B5401EB0F1807F01D3012010BD8E
:101620004FF0E02460610F21601700F00DFB0020F7
:10163000A06107202061002010BD10B5FFF7E8FF72
:1016400010BD30B590F83820012A20D0012280F852
:101650003820022380F8393003685C6824F0700475
:101660005C6003685C680D682C435C6003689C6880
:1016700024F080049C6003689C6849680C439C606B
:1016800080F83920002180F83810084630BD02204B
:1016900030BD10B5040003D094F8390010B107E054
:1016A000012010BD002084F83800204600F00CF81E
:1016B000022084F83900211D206800F0BDFB0120C4
:1016C00084F83900002010BD08B50068064988423A
:1016D00008D10648016841F001010160006800F08E
:1016E0000100009008BD00000000014044380240A5
:1016F000022180F8391001680A6842F001020A608C
:10170000012180F839100020704770B5044690F828
:101710003800012817D0012584F83850022084F8B9
:1017200039002068826822F0770222F47F428260CA
:101730000868502837D00DDC202859D005DC88B344
:10174000102841D151E0022070BD302853D04028EC
:101750003AD13FE060282ED070280BD0B0F5805FE2
:1017600003D0B0F5005F2FD110E02068816821F030
:10177000070115E0CB68D1E90121206800F0BCFB2E
:101780002168886840F0770088601DE0CB68D1E967
:101790000121206800F0B0FB2068816841F480419D
:1017A000816011E01EE0CA684968206800F0B6FB5D
:1017B0005021206806E0CA684968206800F0BFFB35
:1017C0006021206800F0A2FB84F83950002084F8E2
:1017D000380070BDCA684968206800F09FFB40214E
:1017E0002068EFE700212068ECE710212068E9E796
:1017F00020212068E6E730212068E3E770470000F9
:1018000070B5026804461068D168536910F00F0F74
:1018100051D003F0010501F4907635435DD0C20745
:1018200005D0CA0503D5E26B42F00102E26342072C
:1018300005D5DA0703D0E26B42F00202E2638207C9
:1018400005D5DA0703D0E26B42F00402E263020737
:1018500005D5DA0703D0E26B42F00802E263E26BDF
:10186000002A34D0800604D5880602D5204600F030
:1018700095FB20684069E16BC0F3801001F008011E
:101880000143204624D000F07BFB206841694906D3
:101890001AD5416921F040014161606BA0B11B493B
:1018A0000165606BFFF772FA002810D0606B016D64
:1018B000BDE87040084783060FD58B060DD520463E
:1018C000BDE8704000F06ABB2046FFF797FF70BD8F
:1018D000FFF794FF0020E06370BD030606D50B06FA
:1018E00004D52046BDE8704000F0F4BC4006F3D5B6
:1018F0004806F1D5D168204621F04001D160202171
:1019000084F8391000F023F970BD0000711F000841
:1019100070B5040004D094F83900002510B106E039
:10192000012070BD84F83850204600F023F82420B0
:1019300084F839002068C16821F40051C160204654
:1019400000F072FB2068016921F490410161206878
:10195000416921F02A0141612068C16841F40051C8
:10196000C160E563202084F8390084F83A00002043
:1019700070BD0000F0B5006823490224012503264C
:1019800087B088421ED12148016841F4801101606E
:101990000068082700F480100590E0028DE8F1004F
:1019A00069461B48FFF704FA04208DE8F1006946F8
:1019B0001848FFF7FDF9002211463520FFF76CFBB0
:1019C00035201CE0144988421BD11048001D0168D5
:1019D00041F0100101600068694600F010000590B8
:1019E0004FF4C0608DE87100072004900B48FFF7AA
:1019F000DFF9002211462520FFF74EFB2520FFF7D7
:101A00003FFB07B0F0BD00000050004040380240EE
:101A100000080240000C024000100140000002409B
:101A200090F83A30202B1DD1D1B1CAB190F838309E
:101A3000012B17D081628285C2850021C1632222D9
:101A400080F83A2080F8381001684A6942F00102B3
:101A50004A610068C16841F49071C160002070471C
:101A6000012070470220704710B50068064988427F
:101A700008D100F0FBF8BDE81040012203490448FA
:101A8000FFF7CEBF10BD0000005000400000002056
:101A9000980000202DE9F843044690F839001F46CD
:101AA00016460D46202850D1A5B19EB194F83800B5
:101AB00001284AD0012084F838004FF00008C4F80B
:101AC0003C80212084F83900FFF750FAA684814633
:101AD000E68426E00120BDE8F883E08C401EE08427
:101AE000A0684B46B0F5805F4FF000024FF08001D8
:101AF0002046009703D000F01EFCE8B90DE000F08E
:101B00001AFCC8B928882168C0F308004860206919
:101B100008B16D1C05E0AD1C03E0216815F8010B50
:101B20004860E08C0028D8D14B4600224021204656
:101B3000009700F000FC08B10320CCE7202084F8D7
:101B4000390084F838800020C5E70220C3E77047D9
:101B5000FEE700002DE9F041224886B0002401682C
:101B600041F080010160016801F080010591016888
:101B700041F001010160016801F001010591016876
:101B800041F008010160016801F008010591016858
:101B900041F0040101600068134F00F0040005905B
:101BA0000022CC213846FFF7DBF9DFF84080BE1475
:101BB000002231464046FFF7D3F9CC2000900125A2
:101BC000CDE90154694638460394FFF7F1F80096D1
:101BD000CDE90154694640460394FFF7E9F806B0A1
:101BE000BDE8F0813038024000000240000C0240A5
:101BF00010B5134886B011490160A7210024C0E93F
:101C000001144FF6FF71C0E903144461FFF741FD71
:101C100000B1FEE74FF48050009069460848FFF796
:101C200074FD00B1FEE7049404A905480594FFF78C
:101C300008FD002800D0FEE706B010BD00000140FE
:101C40005C000020FEE770470907090E002806DA4D
:101C500000F00F0000F1E02080F8141D704700F143
:101C6000E02080F8001470477047000070B5264CE3
:101C7000002521462078896A0A2829D00D2827D0F6
:101C8000D4E90B231A4303D0292800D1E56270BDA3
:101C90002028FCD92F28FAD028280AD03B28F6D0B3
:101CA000B1F5FF7F08DD19A001F08CFAE56225632C
:101CB00070BD0120E06270BD134AA0F161051B4BAD
:101CC000926A521C192D00D820385854A26270BD57
:101CD0006068401C606000290FDD0B4913484031EB
:101CE000FEF7A9FA08B901F04DF9208D81B20F482D
:101CF00001F09CFA01F002F8A562E5622563BDE8F7
:101D000070400BA001F05EBA000000204552524F17
:101D100052202D206C696E65427566666572206F73
:101D2000766572666C6F770A00000000240100205F
:101D30006F6B0A00704710B5FFF71EF9BDE8104041
:101D4000FFF77BBC30B5254893B00025016841F012
:101D500080510160006800F08050119020480168B7
:101D600041F4804101600068022400F48040119039
:101D70000120039010200490009406940820CDE9DF
:101D80000750A820CDE9090404200B906846FFF70E
:101D9000A5FA00B1FEE70CA90F2081E831004FF44D
:101DA000A0500F904FF48050109005210CA8FFF721
:101DB000A5F900B1FEE7FFF739FA4FF47A71B0FBED
:101DC000F1F0FFF726FC0420FFF716FC0022114675
:101DD000501EFFF761F913B030BD000040380240DB
:101DE000007000401048016841F4700101600F4824
:101DF000016841F0010101600C4A002108321160C4
:101E000002680B4B1A400260031D0A4A1A600268FE
:101E100022F48022026005480C3001600249580615
:101E2000803908607047000088ED00E0003802400B
:101E3000FFFFF6FE10300024F0B50268234B244D5E
:101E4000244E254F254C4FF0804C984209D06045D8
:101E500007D0A84205D0B04203D0B84201D0A0427A
:101E600004D122F0700E4A6842EA0E0298421BD05A
:101E7000604519D0A84217D0B04215D0B84213D04F
:101E8000A04211D0164DA8420ED0164DA8420BD03C
:101E9000154DA84208D0154DA84205D0144DA842B2
:101EA00002D0144DA84203D122F44075CA682A43D7
:101EB00002608A68C2620A688262984201D0A042C7
:101EC00001D10969016301214161F0BD00000140B8
:101ED0000004004000080040000C004000040140E5
:101EE000004001400044014000480140001800400B
:101EF000001C00400020004010B5846842EA032224
:101F000024F47F440A432243826010BD826822F099
:101F100070020A4342F007018160704710B5036AFE
:101F2000046A24F001040462846924F0F00444EAA1
:101F3000021423F00A020A438461026210BD10B544
:101F4000036A23F0100303628369046A23F4704375
:101F500043EA023224F0A00343EA011182610162E4
:101F600010BD00000148FFF74BBC000098000020A6
:101F700010B5806B0021C185C184FFF73FFC10BD07
:101F80000168CA6822F49072CA6001684A6922F046
:101F900001024A61202180F83A10704710B590F88C
:101FA0003A10222901D0022010BD8168B1F5805F6E
:101FB00011D00169002901681FD0496801F07F0331
:101FC000816A4A1C82620B70C18D491E0904090C8A
:101FD000C18518D026E00269816A002A0268526829
:101FE00005D0D2B20A80816A491C8162ECE7C2F353
:101FF00008020A80816A891CF7E74A68816A4B1CDB
:1020000083620A70E0E70168CA6822F49072CA60CD
:1020100001684A6922F001024A61202180F83A10E1
:10202000FFF722FD002010BD2DE9F04104460068B5
:10203000016921F44052E168114301612168C868D7
:1020400049F20C6290432369A268E5691A43636907
:102050002B431A430243CA602168486920F4407246
:10206000A06910434861E1696425B1F5004F9748C4
:10207000974A21684FF032083FD0914201D0814207
:102080007CD1FFF7E9F800EBC00101EB00106168BB
:102090008900B0FBF1F6FFF7DFF800EBC00101EBC0
:1020A000001061688900B0FBF1F0B0FBF5F06FF053
:1020B0001801484306EB800108EB0110B0FBF5F076
:1020C00000F0F006FFF7C8F800EBC00101EB0010CC
:1020D00061688900B0FBF1F0B0FBF5F006EB00168B
:1020E000FFF7BAF800EBC00101EB0010616889004E
:1020F000B0FBF1F7FFF7B0F8D2E0914201D0814296
:102100003DD1FFF7A9F800EBC00101EB00106168B9
:102110004900B0FBF1F0B0FBF5F00601FFF79CF8C9
:1021200000EBC00101EB001061684900B0FBF1F762
:10213000FFF792F800EBC00101EB00106168490065
:10214000B0FBF1F0B0FBF5F06FF01801484307EB7E
:10215000800108EBC100B0FBF5F000F0F80006EBE1
:102160004006FFF779F800EBC00101EB0010616851
:102170004900B0FBF1F7FFF76FF83CE055E0FFF7DF
:102180005BF800EBC00101EB001061684900B0FB97
:10219000F1F0B0FBF5F00601FFF74EF800EBC001DF
:1021A00001EB001061684900B0FBF1F7FFF744F85C
:1021B00000EBC00101EB001061684900B0FBF1F0D9
:1021C000B0FBF5F06FF01801484307EB800108EB16
:1021D000C100B0FBF5F000F0F80006EB4006FFF799
:1021E0002BF800EBC00101EB001061684900B0FB67
:1021F000F1F7FFF721F800EBC00101EB0010616877
:102200004900B0FBF1F0B0FBF5F06FF01801484366
:1022100007EB800108EBC100B0FBF5F000F0070010
:10222000216830448860BDE8F081FFF705F800EBD5
:10223000C00101EB001061688900B0FBF1F6FEF708
:10224000FBFF00EBC00101EB001061688900B0FBEF
:10225000F1F0B0FBF5F06FF01801484306EB800198
:1022600008EB0110B0FBF5F000F0F006FEF7E4FF1C
:1022700000EBC00101EB001061688900B0FBF1F0D8
:10228000B0FBF5F006EB0016FEF7D6FF00EBC00141
:1022900001EB001061688900B0FBF1F7FEF7CCFF9D
:1022A00000EBC00101EB001061688900B0FBF1F0A8
:1022B000B0FBF5F06FF01801484307EB800108EB25
:1022C0000110B0FBF5F000F00F00A9E70014014089
:1022D0000010014090F83910212901D002207047E8
:1022E0008168B1F5805F016A0BD04A1C0262026806
:1022F00009785160C18C491E0904090CC1840ED0B3
:1023000017E009880268C1F30801516001690029DA
:10231000016A02D0491C0162ECE7891CFBE70168F5
:10232000CA6822F08002CA600068C16841F04001BA
:10233000C160002070472DE9F041984617460E46CF
:102340000446069D1DE0681C1BD02DB1FEF70EFE55
:10235000A0EB0800A84214D92068C16821F4D0710C
:10236000C1602068416921F001014161202084F8A9
:10237000390084F83A00002084F838000320BDE8D2
:10238000F0812068006836EA000004D00020B842DE
:10239000D9D00020F3E70120F9E700000148FFF75A
:1023A0002FBA0000D8000020FEE700000FB4084B51
:1023B00010B504A902AA039800F004F9044602A982
:1023C000002000F096FC204610BC5DF814FB0000D5
:1023D000F32C00080048704758000020000000005F
:1023E00030B583B0044600F017F89FED090B0546A1
:1023F0008DED000B002221466846FDF7B6FF28460A
:1024000000F020F89DED000B03B030BD000000008F
:102410000000000000000000014800687047000054
:102420005800002002E008C8121F08C1002AFAD193
:1024300070477047002001E001C1121F002AFBD144
:1024400070470000014908607047000058000020F4
:102450002DE9FF5FDDE90220010DDDF838B0024310
:1024600018D044F61050A1F2FF3141430D140F98DB
:10247000012820D0A5EB0B00401C5FEA000A4FF0BA
:102480000004474EDFF81C91A046504616D5CAF10D
:10249000000728E00F98012443A2012808D000215A
:1024A00000980F9BC0E90021C0E90243BDE8FF9FEF
:1024B0006FEA0B01F4E7CBF10000DEE7074612E01C
:1024C000F80707D02246334640464946FEF796F8BD
:1024D000804689462246334610461946FEF78EF856
:1024E00004460E467F10002FEAD1DDE90201BAF161
:1024F000000F42464B4602DAFEF780F801E0FEF795
:10250000EFF804460E460022284BFEF771F903D877
:102510004FF0FF30014607E00022254B20463146B0
:10252000FDF7C5FFFEF74BF9102409E0002C0ADB8C
:102530000A220023FDF744FE019B30321A55641E27
:1025400050EA0102F2D1641C019AC4F1110314444F
:102550000F9A012A03D0012208430DD10AE0084353
:1025600004D000204FF0110B0F9080E7A3EB0B0578
:102570006D1E0DE05B4504DD4FF0000205F1010525
:1025800004E003DA4FF00002A5F10105002AECD0C7
:1025900000980F99C0E90231C0E9004586E70000C4
:1025A000000024400000F03F300000000000F04335
:1025B0000000E03F30380A2801D201207047002097
:1025C000704700002DE9FF4F95B09B4689460646AF
:1025D00000250FE2252877D100242746F84A01215B
:1025E000059400E0044316F8013F203B01FA03F094
:1025F0001042F7D130782A2811D06FF02F033078AD
:10260000A0F13002092A16D8059A44F0020402EB20
:10261000820203EB42021044761C0590EFE759F862
:10262000042B0592002A03DA504244F4005405902A
:1026300044F00204761C30782E2816D116F8010FCB
:1026400044F004042A280DD06FF02F023078A0F156
:102650003003092B09D807EB870302EB4303C718A4
:10266000761CF3E759F8047B761C30786C280FD081
:1026700006DC4C2817D068280DD06A2814D104E055
:10268000742810D07A280FD10DE044F400140AE029
:1026900044F4801401E044F440147278824202D180
:1026A00004F58014761C761C307866280BD013DC79
:1026B000582877D009DC002875D04528F6D0462860
:1026C000F4D047281AD19DE118E0632835D064285A
:1026D00079D0652812D195E1702873D008DC67287D
:1026E000F1D069286FD06E280DD06F2806D1B5E0E3
:1026F00073282CD0752875D0782874D05A4617992D
:1027000090476D1C75E1C4F30250022809D00328DC
:102710000DD0D9F8001004280DD00D6009F104097E
:1027200067E1D9F80010EA17C1E90052F6E7D9F8D5
:1027300000100D80F2E70D70F0E719F8041B8DF81A
:10274000001000208DF80100EA46012003E059F84E
:1027500004AB4FF0FF3061074FF0000102D40DE0F1
:1027600008F101018846B9420FDA8045F8DB1AF812
:1027700008100029F4D108E008F1010188468142DF
:10278000FADB1AF808100029F6D105985B46A0EB91
:10279000080721463846179A00F094FA284400EBBF
:1027A000080507E04DE029E10DE01AF8010B5A4653
:1027B00017999047B8F10108F7D25B462146384691
:1027C000179A13E142E00A220092C4F302524FF03A
:1027D000000A022A08D059F804CB032A4FEAEC7108
:1027E0000AD00DE029E02AE009F1070121F00702F3
:1027F000F2E802C1914609E00FFA8CFC4FEAEC7155
:10280000042A03D14FFA8CFC4FEAEC71002907DA55
:102810000A460021DCF1000C61EB02012D2202E0EE
:10282000220504D52B228DF80420012203E0E207C3
:1028300001D02022F7E7904659E00A2102E0102259
:102840000DE010214FF0000A00910BE010224FF034
:10285000000A44F004040827009203E008224FF025
:10286000000A0092C4F30252022A05D059F804CBA0
:102870000021032A08D009E009F1070121F007022D
:10288000F2E802C1914605E01FFA8CFC042A01D14E
:102890000CF0FF0C4FF00008220728D5702806D056
:1028A000009B83F0100353EA0A0305D00EE0402298
:1028B0008DF80420012208E05CEA010206D03022F3
:1028C0008DF804208DF8050002229046009B83F0CD
:1028D000080353EA0A030AD15CEA010201D1620744
:1028E00005D530228DF804204FF001087F1E5828AE
:1028F00004D034A003900EA802900DE036A0F9E7B2
:1029000053466046009AFDF75BFC84460398825C60
:102910000298401E029002705CEA0100F0D1029819
:1029200006A9081A00F1200A600702D524F48034B1
:1029300000E00127574502DDA7EB0A0000E0002078
:1029400000EB0A01009005984144401A0590E0030D
:1029500006D45B462146179A059800F0B3F9054462
:10296000002706E001A85A46C05D179990476D1CE4
:102970007F1C4745F6DBE0030CD55B462146179AE2
:10298000059800F09FF9054404E030205A46179955
:1029900090476D1C0099481E00900029F5DC08E066
:1029A000029802995A460078491C0291179990475B
:1029B0006D1CBAF10001AAF1010AF1DC65E1000029
:1029C0000928010030313233343536373839616205
:1029D00063646566000000003031323334353637C9
:1029E00038394142434445460000000000F058F9A0
:1029F0000544761C307800287FF4ECAD19B02846E9
:102A0000BDE8F08F620700D4062709F1070222F023
:102A1000070CFCE80223E14603F000485FEA080CDB
:102A200002D00FF2702C0DE05FEA045C02D50FF2C9
:102A3000682C07E05FEAC47C02D00FF2602C01E052
:102A4000AFF2700C4FF0FF3823F00043CDF850C0C8
:102A500065280CD006DC452809D046281DD047281B
:102A60003DD13DE0662818D067287ED138E00021AE
:102A7000112F01DB112000E0781CCDE9000106A92F
:102A80000EA8FFF7E5FCDDE90F010E9A0391002186
:102A9000009207F1010A04914DE04FF000400097C9
:102AA000CDE9011006A90EA8FFF7D2FCDDE90F025F
:102AB00003920E9B11990022DDF80CA00093049262
:102AC00011B9791C00EB010AB7EB0A0004D4C0F17C
:102AD000FF3007F1010A0490AAEB0700019044E0DF
:102AE000012F00DA01270021112F01DD112000E064
:102AF0003846CDE9000106A90EA8FFF7A9FCDDE9DB
:102B00000F010E9A0391002104910092BA46210709
:102B10000CD40399514500DA8A46BAF1010F05DD5C
:102B2000009AAAF10101515C302908D0B84202DABA
:102B300010F1040F06DA0121CDE9011015E0AAF128
:102B40000101E9E7002805DC049901440491AAEB9E
:102B5000000102E0411C514500DD8A460499401AFB
:102B6000401C01904FF000400290200704D40198CF
:102B7000504501DBCDF8048000208DF84F0002980D
:102B80000DF14F07B0F1004F25D02B200E90029889
:102B90004FF0020800280CDA404202902D200E90DF
:102BA00007E00A210298FDF790FB3031029007F808
:102BB000011DB8F10001A8F10108F2DC029800281B
:102BC000EFD1791E0E980870307800F0200040F0A8
:102BD000450007F8020D12A8C01B00F10708149861
:102BE000007800B1012000EB0A01019801EBE071CF
:102BF00005984144401A401E0590E00306D45B4608
:102C00002146179A059800F05DF80544149800785D
:102C100018B15A46179990476D1CE00324D55B46BE
:102C20002146179A059800F04DF805441CE00498D9
:102C3000002807DBDDE90301884203DD0098405CE2
:102C4000179901E0179930205A469047049805F1EA
:102C50000105401C04900198401E019004D12E20D3
:102C60005A46179990476D1CBAF10001AAF1010A62
:102C7000DDDC05E017F8010B5A46179990476D1CEB
:102C8000B8F10001A8F10108F4DC5B462146179A6F
:102C90000598ABE62D0000002B000000200000008E
:102CA0002DE9F041044600251E461746880404D449
:102CB00005E039462020B0476D1C641EF9D5284632
:102CC000BDE8F0812DE9F041044600251E469046FE
:102CD000C80301D5302700E02027880404D505E08B
:102CE00041463846B0476D1C641EF9D52846BDE8FC
:102CF000F0810A68531C0B60107070470020044973
:102D000002464FF400730A54401C9842FBDB7047A4
:102D1000240100202DE9F04180A02DED048BB0EEC0
:102D2000608AF0EE408A00F04DFAB0EE680A00F0DA
:102D300067FA7DA000F046FAB0EE480A00F060FAAB
:102D40007AA000F03FFA7A4C94ED040AF4EEC08ABF
:102D5000F1EE10FA01DBF0EE408A94ED030AF4EE96
:102D6000C08AF1EE10FA01D8F0EE408A94ED060A1E
:102D7000B4EEC08AF1EE10FA01DBB0EE408A94EDB9
:102D8000050AB4EEC08AF1EE10FA01D8B0EE408A1E
:102D900068A000F017FA94ED070A00F031FA62A07B
:102DA00000F010FA94ED080A00F02AFA5FA000F093
:102DB00009FA608800EE100A62A0B8EE400A28EE18
:102DC000800ABDEEC00AF8EEC08A00F0FBF9B0EE52
:102DD000680A00F015FA608800EE100A5CA0B8EEF0
:102DE000400A28EE000ABDEEC00AB8EEC08A00F024
:102DF000E9F9B0EE480A00F003FA4CA000F0E2F95D
:102E0000D4ED079A94ED089A38EEE90ABDEEC00AAF
:102E100010EE100A002800DA404238EE490A6063DA
:102E2000BDEEC00A10EE100A002800DA4042A0638E
:102E30004BA000F0C7F9606B00F0D6F93AA000F0A3
:102E4000C1F9A06B00F0D0F938A000F0BBF946A0A2
:102E500000F0B8F9BDEEE80A10EE100A00F0C4F96F
:102E600031A000F0AFF9BDEEC80A10EE100A00F074
:102E7000BBF943A000F0A6F9F4EEE89AF1EE10FADF
:102E800094ED020A01D3B1EE400AB4EEC89ABDEE49
:102E9000C00A10EE108AF1EE10FA94ED020A01D386
:102EA000B1EE400AD4E90D01BDEEC00A002588420A
:102EB00010EE106A2F4611DC24E000BF08F0FF007E
:102EC000012100F0FBF8A06B0544606B854204DB38
:102ED0002D1AF0B2002100F0F1F87F1C606B8742E0
:102EE000ECDB12E0F0B2002100F0E8F8606B054482
:102EF000A06B854205DB2D1A08F0FF00012100F0D0
:102F0000DDF87F1CA06B8742ECDBC4ED078A84ED03
:102F1000088ABDEC048BBDE8F081000078312C20DC
:102F200079313A20000000002C0000000A00000067
:102F30000000002058706F732C2059706F733A2076
:102F40000000000073746570735F78313A200000F0
:102F50002C2073746570735F79313A200000000093
:102F600064782C2064793A00476F696E6720746F2B
:102F70002064657374696E6174696F6E2028000047
:102F8000290A00002DE9F041274C00252F466088D2
:102F9000D4ED070A00EE100AB8EE400A20EE800ACF
:102FA000BDEEC00A10EE101A00EE100A6163D4EDF7
:102FB000080AB8EE400A20EE800ABDEEC00A10EE04
:102FC000100AA06394ED020A8142B1EE400ABDEE00
:102FD000C00A10EE106A0FDC22E0F0B2012100F00E
:102FE0006DF8A06B0544606B854204DB2D1AF0B2CE
:102FF000002100F063F87F1C606B8742EDDBBDE8C9
:10300000F081F0B2002100F059F8606B0544A06B2C
:10301000854204DB2D1AF0B2012100F04FF87F1C2D
:10302000A06B8742EDDBEAE700000020FDF7ACFF74
:10303000FEF788FEFEF78EFDFEF7DAFD164815490D
:103040004FF4165500240160C0E901540C26C460F9
:10305000C0E904468461C461FEF75AFC00B1FEE792
:103060000D480E4940300160C0E90154C460C0E918
:1030700004468461C461FEF74BFC00B1FEE70648DC
:103080003C38FEF735FB012205490348FEF7C8FC32
:10309000F9E70000005000409800002000100140B7
:1030A00000000020044900220B685A6209684A6A3D
:1030B0008242FCD3704700005C00002070B51B4DBD
:1030C0001B4C01291AD001282DD00022802128462E
:1030D000FDF746FF012240212846FDF741FFA08C65
:1030E00080B2FFF7DFFF002240212846FDF738FFBE
:1030F000A08CBDE8704080B2FFF7D4BF012810D08B
:10310000002208212846FDF72BFF01220421284632
:10311000FDF726FFA08C80B2FFF7C4FF0022042138
:10312000E3E70122EDE70122D0E7000000000240C2
:103130000000002070B50F4E002210213046FDF730
:103140000FFF0D4D0024012220213046FDF708FF1E
:10315000A88C80B2FFF7A6FF002220213046FDF7A1
:10316000FFFEA88C80B2FFF79DFF641C642CEADB95
:1031700070BD0000000002400000002070B50F4E3E
:10318000012210213046FDF7EBFE0D4D00240122F7
:1031900020213046FDF7E4FEA88C80B2FFF782FFC5
:1031A000002220213046FDF7DBFEA88C80B2FFF71D
:1031B00079FF641C642CEADB70BD00000000024053
:1031C0000000002070B504464FF47A7506E02B46E7
:1031D000012221460348FEF75DFC641C207800288C
:1031E000F5D170BD980000200EB5024603A16846D7
:1031F000FFF7DCF86846FFF7E5FF0EBD2564000029
:103200000EB510EE100AFDF731F841EC100B05A1D8
:1032100053EC102B6846FFF7C9F86846FFF7D2FF5A
:103220000EBD000025302E33660000002DE9F04170
:103230000E462DED028B90B00546002461E0285D1E
:10324000641C442858D0472804D04D2832D0552833
:1032500057D154E0285D641C302852D0312850D119
:1032600058212846FCF7DDFF804659212846FCF707
:10327000D8FF074608F10100FFF7B2F851EC100B38
:10328000FDF707F808EE100A781CFFF7A9F851ECD3
:10329000100BFCF7FEFF08EE900A1D48B0EE480A3E
:1032A000F0EE680A80ED0F8AFFF734FD194880ECD4
:1032B000028A26E0285D641C8DF80000285D641CED
:1032C0008DF80100285D8DF8020000208DF80300C4
:1032D0006846641CFCF7BDFF032812D1281953214E
:1032E000FCF79FFF401CFFF77BF851EC100BFCF73D
:1032F000D0FF0949884202D1FFF71CFF01E0FFF728
:103300003DFFB4429BDB10B0BDEC028BBDE8F08109
:10331000000000201801002000007F430000000092
:103320000000000001020304060708090000000075
:1033300001020304004040404040404040404141C1
:10334000414141404040404040404040404040407A
:103350004040404040050202020202020202020214
:103360000202020202202020202020202020200211
:1033700002020202020290909090909010101010A1
:10338000101010101010101010101010101010103D
:1033900002020202020288888888888808080808D1
:1033A000080808080808080808080808080808089D
:1033B000020202024000000035330008DC3300083E
:1033C000000000205C0000002424000838340008BD
:1033D0005C000020CC0600003424000800005000EF
:1033E000000000000000803F000000000000C84313
:1033F000000000000000C8430000000000000000C2
:10340000E8030000000000000000000000000000D1
:10341000000000000000000000000000686F6D6503
:10342000000000000100000010000000000000008B
:083430000024F400000000007C
:040000050800018965
:00000001FF
